:02000000F22EDE
:0C000600000000000000000000000800E6
:10001200243083120313FC00B530FD00FD0B0F28C2
:0A002200FC0B0F280000000008008E
:0E002C00533083120313FD00FD0B1A28080049
:10003A0083120313E21B2328881324288817621BC0
:10004A002828081329280817E21A2D2888122E288A
:10005A008816621A322808123328081644183728D4
:10006A00071438280710871403208710E2193F283D
:10007A008813402888176219442808134528081746
:10008A00E218492888124A28881662184E28081247
:10009A004F280816441853280714542807108714A1
:1000AA0003208710441C5B2809205C2816200800BE
:1000BA00831203132008930083161418662800007D
:0A00CA00612883121308F0000800FB
:1000D40083120313E01DA0285C08E100E10CE11386
:1000E400E10CE113E10CE1130530F1005D08F000CF
:1000F400710803198128F00D7010FF3E7B287008E9
:10010400E10407110230A0005D205B08A0005D201F
:100114006108A0005D200530F1005C08F000710862
:1001240003199828F00D7010FF3E92287008E10022
:100134007008A0005D2007150320E6280530F000B4
:100144005E08E10070080319AB28E10CE113FF3EDF
:10015400A5285F08F000F00D7010F00D7010F00D80
:1001640070107008E10407110230A0005D205B08E4
:10017400A0005D206108A0005D205E08F000F00D85
:100184007010F00D7010F00D7010E030F005700874
:10019400E10008307004F1007108E10003305E05ED
:1001A400F0007108F0047008E1007008A0005D2000
:1001B4005D08E1005D08A0005D205C08E1005C08CA
:0A01C400A0005D20071503200800CD
:1001CE008312031344105B08E2001D204414080040
:1001DE008312031307110230A0005D20FF30A00030
:1001EE005D205308A0005D20071503205408031955
:1001FE00142907110330A0005D20FE30A0005D2001
:10020E00A0015D207008D50007150320E0305505CC
:0C021E00F10071085306031D00290800C0
:10022A0083120313D303D403D503D603D7030630AB
:10023A00F0005308D900700803192729D90D59105D
:10024A00FF3E21295408D90407110230A0005D207D
:10025A002A30A0005D205908A0005D200715032060
:10026A005508D900D90D5910D90D5910D90D591061
:10027A005708D904581942295917581C4529D9171A
:10028A0007110230A0005D202930A0005D20590826
:10029A00A0005D20071503205608D900D81C56294E
:1002AA00591707110230A0005D202830A0005D20F8
:0C02BA005908A0005D2007150320080073
:1002C600103083120313FD00FD0B672900000800A0
:1002D600831203135308003A031D7F292030DB00E5
:1002E6005408DC005508DD005608DE005708DF001C
:1002F6005808E0006A208C292430DB005408DC0012
:100306005508DD005608DE005708DF005808E000F3
:040316006A20080051
:10031A00A12983120313D901B8290430D900B829B5
:10032A000830D900B8291030D900B8291430D900BA
:10033A00B8291830D900B829831203135308003A90
:10034A0003198E295308013A031992295308023ACC
:10035A00031995295308033A031998295308043AAB
:10036A0003199B299E295908DB005408DC0055080B
:10037A00DD005608DE005708DF005808E0006A2052
:02038A00080069
:10038C00243083120313FD00FD0BCA290000080062
:10039C0083120313F801F9011030FC00710DF80DF4
:1003AC00F90D7408F8027508031C750FF90203188F
:1003BC00E6297408F80775080318750FF907031078
:0A03CC00F00DF10DFC0BD429080020
:1003D600FD29803083120313D300102AC030D300C6
:1003E600102A9430D300102AD430D300102A80303B
:1003F600D300102A831203135308013A0319EC2978
:100406005308023A0319F1295308033A0319F42948
:100416005308043A0319F729FA295403F00053083C
:10042600F0077008D3007008E2001D204410D601C2
:1004360056085507840000080319292A5608550747
:1004460084000008DB00E720D60A1B2A44140800B3
:1004560083120313D41D792A07110330A0005D20EF
:100466005308A0005D20A0015D207008D60005306D
:10047600F1007008D700D801D901DA017108031913
:10048600482AD70CD713FF3E422A0030D800D9009D
:10049600DA005908DA005808D9005708D800D701F9
:1004A6007008F100F10D7110F10D7110F10D711060
:1004B6007108D7040030D804D904DA04A0015D20FD
:1004C6007008D600071503200530F1005608F00025
:1004D60071080319722AF00CF013FF3E6C2A70089B
:1004E600D7040030D804D904DA04F12AD701D80198
:1004F600D901DA0107110330A0005D205308A000DE
:100506005D20A0015D207008D6000530F10070085E
:10051600D50071080319932AD50D5510FF3E8D2A73
:100526000330F1007008D700D801D901DA0171084B
:100536000319A12AD70CD713FF3E9B2A0030D800F7
:10054600D900DA005908DA005808D9005708D80047
:10055600D701A0015D207008D60003307005F100B8
:1005660055087104F3007308D500E0307005F200F9
:100576007208F000F00CF013F00CF013F00CF0130E
:100586007308F0047008D5007008D7040030D8044A
:10059600D904DA045908DA005808D9005708D800EF
:1005A600D701A0015D207008D6007008D70400307E
:1005B600D804D904DA045908DA005808D9005708CB
:1005C600D800D701A0015D207008D60007150320CA
:1005D6005608D7040030D804D904DA045708F000C6
:0E05E6005808F1005908F2005A08F300080006
:1005F4000C2B803083120313D3001F2BC030D30085
:100604001F2B9430D3001F2BD430D3001F2B8030EA
:10061400D3001F2B831203135308013A0319FB2A37
:100624005308023A0319002B5308033A0319032B06
:100634005308043A0319062B092B5403F0005308FA
:10064400F0077008D30044147008E2001D20441021
:0A0654005508E2001D2044140800C0
:0E065E008312031335088A0034088200080056
:10066C008312031307110330A0005D203030A0006B
:10067C005D20A0015D207008D00007150320D01963
:10068C00492BD0016F2B07110330A0005D204030A7
:10069C00A0005D20A0015D207008D000071503208C
:1006AC00D0195B2B1030D0006F2B07110330A0003A
:1006BC005D205030A0005D20A0015D207008D000AE
:1006CC0007150320D0196D2B2030D0006F2BF001B3
:1006DC00DF2B3030D00707110230A0005D2050080E
:1006EC00A0005D2003304F05F0007008D2007008A8
:1006FC00A0005D2007150320CF19872BF730D200FF
:10070C00892BFF30D200500ADB004908DC004A0874
:10071C00DD004B08DE004C08DF005208E0006A20C8
:10072C004E08D2004F1B9B2B521707110230A00012
:10073C005D2005305007A0005D205208A0005D2010
:10074C0007150320032007110230A0005D2006309E
:10075C005007A0005D20D1014E0851020318BE2B9A
:10076C0051084D0784000008A0005D20D10AB22B6F
:10077C000715032003200711CF2B8130A0005D202B
:10078C00DB2B8230A0005D20DB2B8330A0005D20B2
:10079C00DB2B5008303A0319C32B5008403A03198D
:1007AC00C72B5008503A0319CB2B07150320FF30E9
:0407BC00F000080041
:1007C000831203139F01C0309F042609F0007008B4
:1007D00083169F051F179F1783124908F000F00D1D
:1007E0007010F00D7010F00D701070089F041F1441
:1007F000C6211F151F1DFE2B0000FA2B1F101E08FF
:10080000F100F00183161E08F0040030F104080026
:10081000831203134B08D3004C08D4002130D500B9
:10082000EB214B08D3004C08D400E830F40003302F
:10083000F5004908F0004A08F100CE213030700779
:10084000D500FA224B08D3004C0AD4006430F400DF
:100850000030F5004908F0004A08F100CE210A30C6
:10086000F4000030F500CE217808F0007908F1009E
:1008700030307007D500FA224B08D30002304C0705
:10088000D4000A30F4000030F5004908F0004A08AE
:10089000F100CE210A30F4000030F500CE217808B6
:1008A000F0007908F10030307007D500FA224B08CB
:1008B000D30003304C07D4000A30F4000030F500B8
:1008C0004908F0004A08F100CE217808F0007908C4
:0C08D000F10030307007D500FA2208005B
:1008DC00831203134C088400800107110330A0001D
:1008EC005D202C30A0005D20A0015D207008CD00A3
:1008FC00071503204D1CDE2CFF30D00007110530EE
:10090C00A0005D202C30A0005D200130A0005D20F7
:10091C00A0015D2007150320032007110330A00060
:10092C005D202D30A0005D20A0015D207008CD0061
:10093C0007150320CD1FB92C4C0884000830000487
:10094C00F0004C0884007008800007110530A000EE
:10095C005D202D30A0005D208030A0005D20A00126
:10096C005D2007150320032007110330A0005D2034
:10097C006030A0005D20A0015D207008CD0007153F
:10098C0003204D1DDD2C07304D05F0004C08840074
:10099C000008F0044C088400700880004C088400A7
:1009AC0001300005F0004C08840070088000512DC7
:1009BC004C088400800107110330A0005D202C300E
:1009CC00A0005D20A0015D207008CD00071503205C
:1009DC00CD1C4F2DD00107110530A0005D202C300F
:1009EC00A0005D200230A0005D20A0015D20071555
:1009FC000320032007110330A0005D202D30A00040
:100A0C005D20A0015D207008CD00071503204D1F4F
:100A1C00262D4C08840008300004F0004C0884009B
:100A2C007008800007110530A0005D202D30A0005B
:100A3C005D204030A0005D20A0015D200715032043
:100A4C00032007110330A0005D207030A0005D2052
:100A5C00A0015D207008CD000715032007304D055F
:100A6C00F0004C0884000008F0044C088400700866
:100A7C0080004C0884000230000203184E2D4C08F4
:100A8C00840080300004F0004C0884007008800062
:100A9C00512DF001E32D07110330A0005D2050080B
:100AAC000319602D6530A0005D20A0015D20700849
:100ABC00CD00672D7530A0005D20A0015D20700871
:100ACC00CD00071503204B0884004D0880004D1FF6
:100ADC00782D4C08840040300004F0004C08840051
:100AEC007008800007110330A0005D205008031926
:100AFC00892D6230A0005D20A0015D207008CD0022
:100B0C006130CF00922D7230A0005D20A0015D20DD
:100B1C007008CD007130CF0007150320CD1DB22D0C
:100B2C004C08840020300004F0004C08840070084D
:100B3C0080004F08D300F730D4002B2249088400E2
:100B4C00700880007108840A80007208840A800092
:100B5C007308840A8000C42D4F08D300FF30D400E2
:100B6C002B2249088400700880007108840A8000D8
:100B7C007208840A80007308840A80000530CF074D
:100B8C0007110330A0005D204F08A0005D20CE01AE
:100B9C004B08840000084E020318DF2DA0015D20D5
:100BAC007008CD004E084A07840070088000CE0AF9
:0C0BBC00CE2D07150320FF30F0000800CC
:100BC8008316031387100710081288120813881356
:100BD8008312871007108813081388120812092037
:100BE8000920092088160816871403208710092071
:100BF80087140320871009208714032087100920F1
:100C080008128714032087100920871403208710EF
:100C1800881288178714032087100920881308165C
:100C280087140320871008128714032087100920CF
:100C380087140320871008168714032087100920BB
:100C480008128714032087108817081788160816B3
:0C0C5800871403208710092044140800B2
:100C64002F238A110A128000840AB40A0319B50AD0
:080C7400F003031D322E0800FD
:100C7C00831603130713071183120717071507139E
:100C8C006321071763218030D300FF30D400EF209D
:100C9C004908D3004A08D4004B08D5004C08D600AC
:100CAC004D08D7004E08D800152160304E05CF00F6
:100CBC0010304E05F1007108103A031D662E4F15C9
:100CCC0007110230A0005D206030A0005D204F08AD
:100CDC00A0005D2007150320032007110230A0009F
:100CEC005D207030A0005D204F08A0005D2007152E
:100CFC000320D301D401D501D601D701F730D80098
:100D0C006B210130D300D401D501D601D701F730C6
:100D1C00D8006B2160304E05F0009F307004F1005C
:100D2C00A62EF730D000F730D100AF2EFF30D00018
:100D3C00FF30D100AF2EFF30D000F730D100AF2EF6
:100D4C007108DF3A0319972E7108BF3A03199C2ECC
:100D5C00A12ED301D401D501D601D7015008D8005A
:100D6C008D210130D300D401D501D601D701500813
:100D7C00D8008D210230CF004F08053C031CD12E2A
:100D8C004F08D300D401D501D601D7015108D800A2
:100D9C008D21CF0AC22ED301FF30D400EF200800E2
:100DAC005D3083120313C1000030C2002030C30039
:100DBC000030FF30BE00FF30BF00FF30C000FF30FE
:100DCC0083168712871107168312940140308316FD
:080DDC00940083129416080034
:100DE400CE278030831603139F00FF308500D6265C
:100DF400E4250130E2001D200C30E2001D20F43017
:100E0400B300D130BB000130C9000330CA00033045
:100E1400CB000330CC000130CD00D130CE003E26D3
:100E24008030D300FF30D400EF20D301FF30D40052
:100E3400FF30D500D600D700F730D8006B21013041
:100E4400D300FF30D400FF30D500D600D700F730F0
:100E5400D8006B210430D3007130D4002B30D5007E
:100E64000030D6000030D700F730D8008D21D301F0
:100E7400FF30D400EF203630C9003C30CA0048307F
:100E8400CB004730CC006E247008BA003908003A11
:100E9400031D562F3808003A031D562F37082B3AE6
:100EA400031D562F3608713A031DA72F3A0803195C
:100EB400A72F4808023A031DA72F3C08C500C60106
:100EC4004508C600C5013D08C5040030C60402300B
:100ED400D3000130D4002D30D500EB214508C900E2
:100EE4004608CA000230CB000630CC000824C901F1
:100EF400E02370088312C5007108C6007108F2006F
:100F0400F3017208BC00FF307005BD007130C900E8
:100F14002B30CA000030CB000030CC003C30CD0078
:100F24000230CE003308CF0036230130D300013025
:100F3400D4002730D500EB214508C9004608CA0073
:100F44000130CB000630CC0008240630FB001330FF
:100F5400FC00AD30FD00FD0BAD2FFC0BAD2FFB0BEA
:0A0F6400AD2F000000003D2FB62F56
:100F9C0021308400123083120313F000BC30B400F3
:080FAC000730B50032260800F1
:0A0F780020342034203420340034EB
:020F82000F342A
:0C0F840054345834443433343A340034CC
:0C0F900052345834443433343A340034C2
:02400E000A2F77
:00000001FF
