:02000000652C6D
:100006008312031320089300831614180C2800008B
:0A001600072883121308F000080009
:0C002000000000000000000000000800CC
:10002C00243083120313FC00B530FD00FD0B1C289B
:0A003C00FC0B1C2800000000080067
:0E004600533083120313FD00FD0B2728080022
:1000540083120313EF1B30288813312888176F1B72
:100064003528081336280817EF1A3A2888123B282F
:1000740088166F1A3F280812402808165F1844286B
:10008400071445280710871410208710EF194C28EF
:1000940088134D2888176F195128081352280817F8
:1000A400EF1856288812572888166F185B280812EC
:1000B4005C2808165F186028071461280710871445
:1000C400102087105F1C6828162069282320080048
:1000D40083160313AB1DA72827088312EF00EF0C28
:1000E400EF13EF0CEF13EF0CEF130530F100831651
:1000F4002808F000710803198328F00D7010FF3EE2
:100104007D2870088312EF0407110230A000032039
:10011400831626088312A00003206F08A000032082
:100124000530F10083162708F000710803199E2892
:10013400F00D7010FF3E982870088312EF007008CD
:10014400A000032007151020FF280530F0008316B7
:1001540029088312EF0070080319B428EF0CEF1379
:10016400FF3EAE2883162A08F000F00D7010F00D43
:100174007010F00D701070088312EF040711023034
:10018400A0000320831626088312A00003206F0812
:10019400A000032083162908F000F00D7010F00D64
:1001A4007010F00D7010E030F00570088312EF004D
:1001B40008307004F1007108EF000330831629053C
:1001C400F0007108F00470088312EF007008A000BA
:1001D4000320831628088312EF008316280883124D
:1001E400A0000320831627088312EF008316270834
:0C01F4008312A000032007151020080053
:100200008312031307110230A0000320FF30A00067
:1002100003206C08A0000320071510206D080319A7
:10022000252907110330A0000320FE30A000032081
:10023000A00103207008EE0007151020E0306E05C5
:0C024000F10071086C06031D1129080074
:0E024C00831203134C088A004B08820008003E
:10025A00462983120313EC015D2983120430EC0052
:10026A005D2983120830EC005D2983121030EC00FE
:10027A005D2983121430EC005D2983121830EC00DA
:10028A005D29831603132008003A03192E29200832
:10029A00013A031932292008023A0319362920089B
:1002AA00033A03193A292008043A03193E29422934
:1002BA0083126C088316A6002108A7002208A8004A
:1002CA002308A9002408AA002508AB006A20080010
:1002DA00831203135F106C08EF002A205F140800D2
:1002EA00103083120313FD00FD0B7929000008006A
:1002FA0083160313A003A103A203A303A4030630D6
:10030A00F00020088312EC00700803199029EC0D04
:10031A006C10FF3E8A29831621088312EC04071108
:10032A000230A00003202A30A00003206C08A0009D
:10033A00032007151020831622088312EC00EC0D07
:10034A006C10EC0D6C10EC0D6C10831624088312E3
:10035A00EC0483162519B32983126C178316251CFE
:10036A00B8298312EC17831207110230A000032068
:10037A002930A00003206C08A000032007151020D4
:10038A00831623088312EC008316A51CCE29831238
:10039A006C17831207110230A00003202830A00036
:0E03AA0003206C08A000032007151020080097
:1003B800243083120313FD00FD0BE0290000080020
:1003C800831603132008003A031DF8292030A600DD
:1003D8002108A7002208A8002308A9002408AA00C9
:1003E8002508AB006A20062A24308316A6002108B7
:1003F800A7002208A8002308A9002408AA002508A5
:06040800AB006A200800B1
:10040E008312031307110330A00003203030A00025
:10041E000320A00103207008E90007151020E91938
:10042E001A2AE901402A07110330A00003204030A8
:10043E00A0000320A00103207008E900071510207A
:10044E00E9192C2A1030E900402A07110330A000C8
:10045E0003205030A0000320A00103207008E90003
:10046E0007151020E9193E2A2030E900402AF00134
:10047E00BB2A3030E90707110230A00003206908BB
:10048E00A000032003306805F0007008EB00700830
:10049E00A000032007151020E819582AF730EB00AA
:1004AE005A2AFF30EB00690A8316A60083126208EF
:1004BE008316A700831263088316A80083126408AC
:1004CE008316A900831265088316AA0083126B088F
:1004DE008316AB006A206708EB00681B772A6B1740
:1004EE0007110230A000032005306907A000032089
:1004FE006B08A000032007151020102007110230F2
:10050E00A000032006306907A0000320EA01670857
:10051E006A0203189A2A6A08660784000008A00077
:10052E000320EA0A8E2A0715102010200711AB2A85
:10053E008130A0000320B72A8230A0000320B72A02
:10054E008330A0000320B72A6908303A03199F2A86
:10055E006908403A0319A32A6908503A0319A72AD1
:0A056E0007151020FF30F000080010
:1005780083120313F801F9011030FC00710DF80D16
:10058800F90D7408F8027508031C750FF9020318B1
:10059800D42A7408F80775080318750FF9070310AB
:0A05A800F00DF10DFC0BC22A080053
:1005B200831203139F01C0309F043009F0007008BA
:1005C20083169F051F179F1783126208F000F00D14
:1005D2007010F00D7010F00D701070089F041F1451
:1005E200DC211F151F1DF72A0000F32A1F101E0809
:1005F200F100F00183161E08F0040030F104080037
:10060200831603130713071183120717071507131E
:100612007521071775218030EC00FF30ED000021B5
:1006220062088316A000831263088316A100831256
:1006320064088316A200831265088316A30083123E
:1006420066088316A400831267088316A5007D211D
:1006520060306705E80010306705F1007108103A54
:10066200031D342B681507110230A00003206030EF
:10067200A00003206808A000032007151020102006
:1006820007110230A00003207030A0000320680888
:10069200A0000320071510208316A001A101A201CA
:1006A200A301A401F730A500E42101308316A000C4
:1006B200A101A201A301A401F730A500E421603049
:1006C2006705F0009F307004F100762BF730E900E7
:1006D200F730EA007F2BFF30E900FF30EA007F2B82
:1006E200FF30E900F730EA007F2B7108DF3A031987
:1006F200672B7108BF3A03196C2B712B8316A0016B
:10070200A101A201A301A401831269088316A50015
:100712002D2101308316A000A101A201A301A40191
:10072200831269088316A5002D210230E8006808AB
:10073200053C031CAA2B68088316A000A101A20194
:10074200A301A40183126A088316A5002D21E80AD9
:0C075200982BEC01FF30ED0000210800A6
:10075E0083160313871007100812881208138813C4
:10076E008312871007108813081388120812162098
:10077E0016201620881608168714102087101620AB
:10078E00871410208710162087141020871016202B
:10079E000812871410208710162087141020871037
:1007AE0088128817871410208710162088130816B1
:1007BE008714102087100812871410208710162017
:1007CE008714102087100816871410208710162003
:1007DE000812871410208710881708178816081615
:0C07EE0087141020871016205F140800EC
:1007FA0026218A110A128000840ACB0A0319CC0A1C
:08080A00F003031DFD2B0800A3
:100812001B2C803083120313E2002E2CC030E20026
:100822002E2C9430E2002E2CD430E2002E2C80307C
:10083200E2002E2C831203136208013A03190A2CD8
:100842006208023A03190F2C6208033A0319122CA8
:100852006208043A0319152C182C6303F00062088D
:10086200F0077008E2007008EF002A205F10E5012F
:1008720065086407840000080319472C65086407AB
:1008820084000008EC006D21E50A392C5F14080091
:10089200033083120313DC000030DD002030DE0061
:1008A2000030FF30D900FF30DA00FF30DB00FF30CC
:1008B200831687128711071683129401403083161C
:0808C200940083129416080053
:1008CA00FA258030831603139F00FF3085004924E0
:1008DA00AF230130EF002A200C30EF002A2001302C
:1008EA00E2000130E3002130E4000924F430D000B2
:1008FA00D130CF000130E2000330E3000330E400DE
:10090A000330E5000130E600D130E70001238030F2
:10091A00EC00FF30ED0000218316A001FF30A1009A
:10092A00FF30A200A300A400F730A500E4210130A3
:10093A008316A000FF30A100FF30A200A300A4008C
:10094A00F730A500E42104308316A0007130A1001D
:10095A002B30A2000030A3000030A400F730A5001D
:10096A002D21EC01FF30ED000021E201D9227008AF
:10097A008312CD007108CE007108F200F3017208EB
:10098A00D100FF307005D2000130E2000130E300EF
:10099A004430E40009248630EF002A20E830F400CD
:1009AA000330F5004D08F0004E08F100BC2230304B
:1009BA007007EC006D216430F4000030F5004D083A
:1009CA00F0004E08F100BC220A30F4000030F500B5
:1009DA00BC227808F0007908F10030307007EC008A
:1009EA006D210A30F4000030F5004D08F0004E0881
:1009FA00F100BC220A30F4000030F500BC2278086D
:100A0A00F0007908F10030307007EC006D210A30EF
:100A1A00F4000030F5004D08F0004E08F100BC2249
:100A2A007808F0007908F10030307007EC006D2189
:100A3A000130E2000B30E3003E30E40009244F307D
:100A4A00E2002F30E3000030E4000030E5005130CE
:100A5A00E6000230E7005008E80007220330FB00F6
:100A6A008A30FC005530FD00FD0B392DFC0B392D69
:100A7A00FB0B392D000000000330E200D922700878
:100A8A008312E0007108E1007108F200F3017208B4
:100A9A00D100FF307005D2000230E2000130E300DD
:100AAA003730E4000924C630EF002A20E830F40089
:100ABA000330F5006008F0006108F100BC22303014
:100ACA007007EC006D216430F4000030F500600816
:100ADA00F0006108F100BC220A30F4000030F50091
:100AEA00BC227808F0007908F10030307007EC0079
:100AFA006D210A30F4000030F5006008F00061084A
:100B0A00F100BC220A30F4000030F500BC2278085B
:100B1A00F0007908F10030307007EC006D210A30DE
:100B2A00F4000030F5006008F0006108F100BC2212
:100B3A007808F0007908F10030307007EC006D2178
:100B4A000130E2000B30E3003130E4000924713057
:100B5A00E2002B30E3000030E4000030E5005130C1
:100B6A00E6000230E7005008E80007220330FB00E5
:100B7A008A30FC005530FD00FD0BC12DFC0BC12D48
:0C0B8A00FB0BC12D00000000BA2CCA2D8E
:100BF400213084002A3083120313F000D030CB005C
:080C04000530CC00FD230800BF
:100BA0004E346F346434653420344134203453344B
:0E0BB00065346E34643469346E346734003456
:020BBE000F34F2
:0C0BC00020342034203420342034003451
:0E0BCC004E346F346434653431343A340034BE
:0C0BDA0020342034203420342034003437
:0E0BE6004E346F346434653432343A340034A3
:02400E000A2F77
:00000001FF
