:020000007D2D54
:0C000600000000000000000000000800E6
:10001200243083120313FC00B530FD00FD0B0F28C2
:0A002200FC0B0F280000000008008E
:0E002C00533083120313FD00FD0B1A28080049
:10003A00831203132008930083161418262800003D
:0A004A00212883121308F0000800BB
:1000540083120313E91B3028881331288817691B7E
:100064003528081336280817E91A3A2888123B2835
:100074008816691A3F280812402808164B18442885
:10008400071445280710871403208710E9194C2802
:1000940088134D28881769195128081352280817FE
:1000A400E918562888125728881669185B280812F8
:1000B4005C2808164B186028071461280710871459
:1000C400032087104B1C6828092069281620080083
:1000D40083120313EE1DA0286A08EF00EF0CEF1340
:1000E400EF0CEF13EF0CEF130530F1006B08F00089
:1000F400710803198128F00D7010FF3E7B287008E9
:10010400EF0407110230A0001D206908A0001D2083
:100114006F08A0001D200530F1006A08F000710886
:1001240003199828F00D7010FF3E92287008EF0014
:100134007008A0001D2007150320E6280530F000F4
:100144006C08EF0070080319AB28EF0CEF13FF3EA7
:10015400A5286D08F000F00D7010F00D7010F00D72
:1001640070107008EF0407110230A0001D20690808
:10017400A0001D206F08A0001D206C08F000F00DE9
:100184007010F00D7010F00D7010E030F005700874
:10019400EF0008307004F1007108EF0003306C05C3
:1001A400F0007108F0047008EF007008A0001D2032
:1001B4006B08EF006B08A0001D206A08EF006A08B6
:0A01C400A0001D200715032008000D
:1001CE00831203134B106108E9002A204B14080018
:1001DE00831203136108003A031D03292030E9003E
:1001EE006208EA006308EB006408EC006508ED00A5
:1001FE006608EE006A2010292430E9006208EA0041
:10020E006308EB006408EC006508ED006608EE007C
:04021E006A2008004A
:0E022200831203133D088A003C088200080086
:10023000103083120313FD00FD0B1C290000080081
:1002400083120313E21D6E2907110330A0001D2045
:100250006108A0001D20A0011D207008E4000530E9
:10026000F1007008E500E601E701E80171080319F3
:100270003D29E50CE513FF3E37290030E600E70095
:10028000E8006708E8006608E7006508E600E501A1
:100290007008F100F10D7110F10D7110F10D711078
:1002A0007108E5040030E604E704E804A0011D201D
:1002B0007008E400071503200530F1006408F00021
:1002C000710803196729F00CF013FF3E61297008CB
:1002D000E5040030E604E704E804E629E501E60168
:1002E000E701E80107110330A0001D206108A0000C
:1002F0001D20A0011D207008E4000530F1007008E9
:10030000E300710803198829E30D6310FF3E822979
:100310000330F1007008E500E601E701E80171082B
:1003200003199629E50CE513FF3E90290030E600FD
:10033000E700E8006708E8006608E7006508E600EF
:10034000E501A0011D207008E40003307005F100F4
:1003500063087104F3007308E300E0307005F200F5
:100360007208F000F00CF013F00CF013F00CF01326
:100370007308F0047008E3007008E5040030E60438
:10038000E704E8046708E8006608E7006508E60097
:10039000E501A0011D207008E4007008E5040030AC
:1003A000E604E704E8046708E8006608E700650873
:1003B000E600E501A0011D207008E40007150320F8
:1003C0006408E5040030E604E704E8046508F0008A
:0E03D0006608F1006708F2006808F3000800F4
:1003DE0083120313E103E203E303E403E5030630B0
:1003EE00F0006108E70070080319012AE70D671095
:1003FE00FF3EFB296208E70407110230A0001D2012
:10040E002A30A0001D206708A0001D20071503201C
:10041E006308E700E70D6710E70D6710E70D67103B
:10042E006508E70466191C2A6717661C1F2AE7175A
:10043E0007110230A0001D202930A0001D206708E2
:10044E00A0001D20071503206408E700E61C302AD3
:10045E00671707110230A0001D202830A0001D20B4
:0C046E006708A0001D20071503200800EF
:10047A00512A83120313E701682A0430E700682A25
:10048A000830E700682A1030E700682A1430E700CD
:10049A00682A1830E700682A831203136108003AB1
:1004AA0003193E2A6108013A0319422A6108023AED
:1004BA000319452A6108033A0319482A6108043ACC
:1004CA0003194B2A4E2A6708E9006208EA00630802
:1004DA00EB006408EC006508ED006608EE006A208F
:0204EA00080008
:1004EC008312031307110230A0001D20FF30A0005F
:1004FC001D206108A0001D200715032062080319A8
:10050C009B2A07110330A0001D20FE30A0001D20E7
:10051C00A0011D207008E30007150320E0306305DF
:0C052C00F10071086106031D872A080019
:1005380083160313071307118312071707150713E9
:100548001821071718218030E100FF30E2007622D9
:100558005808E1005908E2005A08E3005B08E40083
:100568005C08E5005D08E600EF2160305D05DE000F
:1005780010305D05F1007108103A031DC42A5E159C
:1005880007110230A0001D206030A0001D205E0869
:10059800A0001D2007150320032007110230A0002A
:1005A8001D207030A0001D205E08A0001D2007152A
:1005B8000320E101E201E301E401E501F730E6008F
:1005C800EF200130E100E201E301E401E501F73049
:1005D800E600EF2060305D05F0009F307004F10008
:1005E800042BF730DF00F730E0000D2BFF30DF0081
:1005F800FF30E0000D2BFF30DF00F730E0000D2B5F
:100608007108DF3A0319F52A7108BF3A0319FA2A63
:10061800FF2AE101E201E301E401E5015F08E600E8
:100628003D220130E100E201E301E401E5015F0858
:10063800E6003D220230DE005E08053C031C2F2B3D
:100648005E08E100E201E301E401E5016008E6007B
:100658003D22DE0A202BE101FF30E200762208006D
:10066800462B803083120313D800592BC030D80092
:10067800592B9430D800592BD430D800592B8030BE
:10068800D800592B831203135808013A0319352B44
:100698005808023A03193A2B5808033A03193D2B14
:1006A8005808043A0319402B432B5903F000580803
:1006B800F0077008D8007008E9002A204B10DB0109
:1006C8005B085A07840000080319722B5B085A0755
:1006D80084000008E100E720DB0A642B4B140800C3
:1006E80083120313F801F9011030FC00710DF80DA5
:1006F800F90D7408F8027508031C750FF902031840
:100708008C2B7408F80775080318750FF907031080
:0A071800F00DF10DFC0B7A2B080028
:10072200831203135B088400800107110330A000C9
:100732001D202C30A0001D20A0011D207008DC000F
:10074200071503205C1C012CFF30DF000711053068
:10075200A0001D202C30A0001D200130A0001D2073
:10076200A0011D2007150320032007110330A0005C
:100772001D202D30A0001D20A0011D207008DC00CE
:1007820007150320DC1FDC2B5B0884000830000403
:10079200F0005B0884007008800007110530A0009B
:1007A2001D202D30A0001D208030A0001D20A001A2
:1007B2001D2007150320032007110330A0001D2070
:1007C2006030A0001D20A0011D207008DC0007156C
:1007D20003205C1D002C07305C05F0005B088400E0
:1007E2000008F0045B088400700880005B08840045
:1007F20001300005F0005B08840070088000742C52
:100802005B088400800107110330A0001D202C30FA
:10081200A0001D20A0011D207008DC000715032088
:10082200DC1C722CDF0107110530A0001D202C30CA
:10083200A0001D200230A0001D20A0011D200715D0
:100842000320032007110330A0001D202D30A0003B
:100852001D20A0011D207008DC00071503205C1F6D
:10086200492C5B08840008300004F0005B08840017
:100872007008800007110530A0001D202D30A00057
:100882001D204030A0001D20A0011D2007150320BF
:10089200032007110330A0001D207030A0001D208E
:1008A200A0011D207008DC000715032007305C053D
:1008B200F0005B0884000008F0045B088400700804
:1008C20080005B088400023000020318712C5B0870
:1008D200840080300004F0005B088400700880000F
:1008E200742CF001062D07110330A0001D205F08B3
:1008F2000319832C6530A0001D20A0011D20700863
:10090200DC008A2C7530A0001D20A0011D2070087B
:10091200DC00071503205A0884005C0880005C1F75
:100922009B2C5B08840040300004F0005B088400CC
:100932007008800007110330A0001D205F08031912
:10094200AC2C6230A0001D20A0011D207008DC002C
:100952006130DE00B52C7230A0001D20A0011D20E8
:100962007008DC007130DE0007150320DC1DD52C79
:100972005B08840020300004F0005B0884007008EB
:1009820080005E08E100F730E20020215808840070
:10099200700880007108840A80007208840A80004E
:1009A2007308840A8000E72C5E08E100FF30E20051
:1009B200202158088400700880007108840A800091
:1009C2007208840A80007308840A80000530DE07FA
:1009D20007110330A0001D205E08A0001D20DD01CC
:1009E2005A08840000085D020318022DA0011D2090
:1009F2007008DC005D085907840070088000DD0A79
:0C0A0200F12C07150320FF30F000080065
:100A0E008316031387100710081288120813881311
:100A1E0083128710071088130813881208120920F2
:100A2E00092009208816081687140320871009202C
:100A3E0087140320871009208714032087100920AC
:100A4E0008128714032087100920871403208710AB
:100A5E008812881787140320871009208813081618
:100A6E00871403208710081287140320871009208B
:100A7E008714032087100816871403208710092077
:100A8E00081287140320871088170817881608166F
:0C0A9E0087140320871009204B14080067
:100AAA0011218A110A128000840ABC0A0319BD0A9C
:080ABA00F003031D552D080097
:100AC2001D3083120313C8000030C9002030CA0051
:100AD2000030FF30C500FF30C600FF30C700FF30D6
:100AE20083168712871107168312940140308316EA
:080AF200940083129416080021
:100AFA004E3083120313A1006F30A2006430A300AA
:100B0A006530A4002030A5004230A6002030A7009E
:100B1A004130A8004430A9004330AA002030AB007D
:100B2A004330AC004130AD004E30AE00AF01203052
:100B3A00B0002030B1002030B2002030B3002030A5
:100B4A00B400B5015230B6005830B7004430B8008E
:100B5A003230B9003A30BA00BB01803083169F00A8
:100B6A00FF308500612507250130E9002A200C3075
:100B7A00E9002A200130D8000130D9002130DA00FA
:100B8A003423F430C000D130BF000130D800033024
:100B9A00D9000330DA000330DB000130DC00D13049
:100BAA00DD009C228030E100FF30E2007622E10184
:100BBA00FF30E200FF30E300E400E500F730E60032
:100BCA00EF200130E100FF30E200FF30E300E400F3
:100BDA00E500F730E600EF200430E1004F30E20094
:100BEA002F30E3000030E4000030E500F730E60083
:100BFA003D22E101FF30E20076224130D8004E303A
:100C0A00D9004D30DA004C30DB0091237008BE0069
:100C1A004408003A031D1B2E4308003A031D1B2EED
:100C2A0042082F3A031D1B2E41084F3A031D892EF5
:100C3A003E080319892E4D08023A031D892E4E08D3
:100C4A00D600D7015608D700D6014F08D60400307F
:100C5A00D7040230D8000130D9003630DA00342304
:100C6A00C630E9002A20E830F4000330F5005608BF
:100C7A00F0005708F100742330307007E100E720D4
:100C8A006430F4000030F5005608F0005708F1000F
:100C9A0074230A30F4000030F50074237808F00059
:100CAA007908F10030307007E100E7200A30F400DB
:100CBA000030F5005608F0005708F10074230A3096
:100CCA00F4000030F50074237808F0007908F10088
:100CDA0030307007E100E7200A30F4000030F500F8
:100CEA005608F0005708F10074237808F0007908D4
:100CFA00F10030307007E100E7200230D8000B30F5
:100D0A00D9003030DA0034230630FB001330FC00FF
:100D1A00AD30FD00FD0B8F2EFC0B8F2EFB0B8F2EA3
:080D2A0000000000022E982ECB
:02400E000A2F77
:00000001FF
